{"abi":[{"type":"constructor","inputs":[{"name":"_avsDirectory","type":"address","internalType":"address"},{"name":"_stakeRegistry","type":"address","internalType":"address"},{"name":"_delegationManager","type":"address","internalType":"address"}],"stateMutability":"nonpayable"},{"type":"function","name":"allTaskHashes","inputs":[{"name":"","type":"uint32","internalType":"uint32"}],"outputs":[{"name":"","type":"bytes32","internalType":"bytes32"}],"stateMutability":"view"},{"type":"function","name":"allTaskResponses","inputs":[{"name":"","type":"address","internalType":"address"},{"name":"","type":"uint32","internalType":"uint32"}],"outputs":[{"name":"","type":"bytes","internalType":"bytes"}],"stateMutability":"view"},{"type":"function","name":"avsDirectory","inputs":[],"outputs":[{"name":"","type":"address","internalType":"address"}],"stateMutability":"view"},{"type":"function","name":"createNewTask","inputs":[{"name":"name","type":"string","internalType":"string"}],"outputs":[],"stateMutability":"nonpayable"},{"type":"function","name":"deregisterOperatorFromAVS","inputs":[{"name":"operator","type":"address","internalType":"address"}],"outputs":[],"stateMutability":"nonpayable"},{"type":"function","name":"getOperatorRestakedStrategies","inputs":[{"name":"_operator","type":"address","internalType":"address"}],"outputs":[{"name":"","type":"address[]","internalType":"address[]"}],"stateMutability":"view"},{"type":"function","name":"getRestakeableStrategies","inputs":[],"outputs":[{"name":"","type":"address[]","internalType":"address[]"}],"stateMutability":"view"},{"type":"function","name":"latestTaskNum","inputs":[],"outputs":[{"name":"","type":"uint32","internalType":"uint32"}],"stateMutability":"view"},{"type":"function","name":"operatorHasMinimumWeight","inputs":[{"name":"operator","type":"address","internalType":"address"}],"outputs":[{"name":"","type":"bool","internalType":"bool"}],"stateMutability":"view"},{"type":"function","name":"owner","inputs":[],"outputs":[{"name":"","type":"address","internalType":"address"}],"stateMutability":"view"},{"type":"function","name":"pause","inputs":[{"name":"newPausedStatus","type":"uint256","internalType":"uint256"}],"outputs":[],"stateMutability":"nonpayable"},{"type":"function","name":"pauseAll","inputs":[],"outputs":[],"stateMutability":"nonpayable"},{"type":"function","name":"paused","inputs":[{"name":"index","type":"uint8","internalType":"uint8"}],"outputs":[{"name":"","type":"bool","internalType":"bool"}],"stateMutability":"view"},{"type":"function","name":"paused","inputs":[],"outputs":[{"name":"","type":"uint256","internalType":"uint256"}],"stateMutability":"view"},{"type":"function","name":"pauserRegistry","inputs":[],"outputs":[{"name":"","type":"address","internalType":"contract IPauserRegistry"}],"stateMutability":"view"},{"type":"function","name":"payForRange","inputs":[{"name":"rangePayments","type":"tuple[]","internalType":"struct IPaymentCoordinator.RangePayment[]","components":[{"name":"strategiesAndMultipliers","type":"tuple[]","internalType":"struct IPaymentCoordinator.StrategyAndMultiplier[]","components":[{"name":"strategy","type":"address","internalType":"contract IStrategy"},{"name":"multiplier","type":"uint96","internalType":"uint96"}]},{"name":"token","type":"address","internalType":"contract IERC20"},{"name":"amount","type":"uint256","internalType":"uint256"},{"name":"startTimestamp","type":"uint32","internalType":"uint32"},{"name":"duration","type":"uint32","internalType":"uint32"}]}],"outputs":[],"stateMutability":"nonpayable"},{"type":"function","name":"registerOperatorToAVS","inputs":[{"name":"operator","type":"address","internalType":"address"},{"name":"operatorSignature","type":"tuple","internalType":"struct ISignatureUtils.SignatureWithSaltAndExpiry","components":[{"name":"signature","type":"bytes","internalType":"bytes"},{"name":"salt","type":"bytes32","internalType":"bytes32"},{"name":"expiry","type":"uint256","internalType":"uint256"}]}],"outputs":[],"stateMutability":"nonpayable"},{"type":"function","name":"renounceOwnership","inputs":[],"outputs":[],"stateMutability":"nonpayable"},{"type":"function","name":"respondToTask","inputs":[{"name":"task","type":"tuple","internalType":"struct IHelloWorldServiceManager.Task","components":[{"name":"name","type":"string","internalType":"string"},{"name":"taskCreatedBlock","type":"uint32","internalType":"uint32"}]},{"name":"referenceTaskIndex","type":"uint32","internalType":"uint32"},{"name":"signature","type":"bytes","internalType":"bytes"}],"outputs":[],"stateMutability":"nonpayable"},{"type":"function","name":"setPauserRegistry","inputs":[{"name":"newPauserRegistry","type":"address","internalType":"contract IPauserRegistry"}],"outputs":[],"stateMutability":"nonpayable"},{"type":"function","name":"stakeRegistry","inputs":[],"outputs":[{"name":"","type":"address","internalType":"address"}],"stateMutability":"view"},{"type":"function","name":"transferOwnership","inputs":[{"name":"newOwner","type":"address","internalType":"address"}],"outputs":[],"stateMutability":"nonpayable"},{"type":"function","name":"unpause","inputs":[{"name":"newPausedStatus","type":"uint256","internalType":"uint256"}],"outputs":[],"stateMutability":"nonpayable"},{"type":"function","name":"updateAVSMetadataURI","inputs":[{"name":"_metadataURI","type":"string","internalType":"string"}],"outputs":[],"stateMutability":"nonpayable"},{"type":"event","name":"Initialized","inputs":[{"name":"version","type":"uint8","indexed":false,"internalType":"uint8"}],"anonymous":false},{"type":"event","name":"NewTaskCreated","inputs":[{"name":"taskIndex","type":"uint32","indexed":true,"internalType":"uint32"},{"name":"task","type":"tuple","indexed":false,"internalType":"struct IHelloWorldServiceManager.Task","components":[{"name":"name","type":"string","internalType":"string"},{"name":"taskCreatedBlock","type":"uint32","internalType":"uint32"}]}],"anonymous":false},{"type":"event","name":"OwnershipTransferred","inputs":[{"name":"previousOwner","type":"address","indexed":true,"internalType":"address"},{"name":"newOwner","type":"address","indexed":true,"internalType":"address"}],"anonymous":false},{"type":"event","name":"Paused","inputs":[{"name":"account","type":"address","indexed":true,"internalType":"address"},{"name":"newPausedStatus","type":"uint256","indexed":false,"internalType":"uint256"}],"anonymous":false},{"type":"event","name":"PauserRegistrySet","inputs":[{"name":"pauserRegistry","type":"address","indexed":false,"internalType":"contract IPauserRegistry"},{"name":"newPauserRegistry","type":"address","indexed":false,"internalType":"contract IPauserRegistry"}],"anonymous":false},{"type":"event","name":"TaskResponded","inputs":[{"name":"taskIndex","type":"uint32","indexed":true,"internalType":"uint32"},{"name":"task","type":"tuple","indexed":false,"internalType":"struct IHelloWorldServiceManager.Task","components":[{"name":"name","type":"string","internalType":"string"},{"name":"taskCreatedBlock","type":"uint32","internalType":"uint32"}]},{"name":"operator","type":"address","indexed":false,"internalType":"address"}],"anonymous":false},{"type":"event","name":"Unpaused","inputs":[{"name":"account","type":"address","indexed":true,"internalType":"address"},{"name":"newPausedStatus","type":"uint256","indexed":false,"internalType":"uint256"}],"anonymous":false}],"bytecode":{"object":"0x6101006040523480156200001257600080fd5b5060405162002c8938038062002c89833981016040819052620000359162000151565b6001600160a01b0380841660a052808316608052600060c081905290821660e05283908390836200006562000072565b505050505050506200019b565b600054610100900460ff1615620000df5760405162461bcd60e51b815260206004820152602760248201527f496e697469616c697a61626c653a20636f6e747261637420697320696e697469604482015266616c697a696e6760c81b606482015260840160405180910390fd5b60005460ff908116101562000132576000805460ff191660ff9081179091556040519081527f7f26b83ff96e1f2b6a682f133852f6798a09c465da95921460cefb38474024989060200160405180910390a15b565b80516001600160a01b03811681146200014c57600080fd5b919050565b6000806000606084860312156200016757600080fd5b620001728462000134565b9250620001826020850162000134565b9150620001926040850162000134565b90509250925092565b60805160a05160c05160e051612a676200022260003960006114fe01526000818161126d015261134301526000818161028501528181611769015281816117bf0152611836015260008181610246015281816105dc01528181610ba201528181610bf401528181610cf401528181610d93015281816113b601526118710152612a676000f3fe608060405234801561001057600080fd5b50600436106101585760003560e01c806385edf874116100c3578063a98fb3551161007c578063a98fb35514610331578063c20bab7f14610344578063d5dba76d14610364578063e481af9d14610377578063f2fde38b1461037f578063fabc1cbc1461039257600080fd5b806385edf874146102af578063886f1195146102c25780638b00ce7c146102d55780638da5cb5b146102fa5780639926ee7d1461030b578063a364f4da1461031e57600080fd5b8063595c6a6711610115578063595c6a67146101fe5780635ac86ab7146102065780635c975abb1461023957806368304835146102415780636b3aa72e14610280578063715018a6146102a757600080fd5b806310d67a2f1461015d578063136439dd146101725780631b445516146101855780632d89f6fc1461019857806333cfb7b7146101cb5780633415a49c146101eb575b600080fd5b61017061016b366004611d07565b6103a5565b005b610170610180366004611d2b565b610461565b610170610193366004611d44565b6105a0565b6101b86101a6366004611dd1565b60ca6020526000908152604090205481565b6040519081526020015b60405180910390f35b6101de6101d9366004611d07565b6105b6565b6040516101c29190611dec565b6101706101f9366004611e39565b6105c7565b6101706109f3565b610229610214366004611ee3565b609854600160ff9092169190911b9081161490565b60405190151581526020016101c2565b6098546101b8565b6102687f000000000000000000000000000000000000000000000000000000000000000081565b6040516001600160a01b0390911681526020016101c2565b6102687f000000000000000000000000000000000000000000000000000000000000000081565b610170610aba565b6101706102bd36600461200f565b610ace565b609754610268906001600160a01b031681565b60c9546102e59063ffffffff1681565b60405163ffffffff90911681526020016101c2565b6033546001600160a01b0316610268565b61017061031936600461205f565b610b97565b61017061032c366004611d07565b610be9565b61017061033f36600461200f565b610c3a565b610357610352366004612109565b610c4b565b6040516101c29190612184565b610229610372366004611d07565b610cf0565b6101de610e06565b61017061038d366004611d07565b610e15565b6101706103a0366004611d2b565b610e8b565b609760009054906101000a90046001600160a01b03166001600160a01b031663eab66d7a6040518163ffffffff1660e01b8152600401602060405180830381865afa1580156103f8573d6000803e3d6000fd5b505050506040513d601f19601f8201168201806040525081019061041c9190612197565b6001600160a01b0316336001600160a01b0316146104555760405162461bcd60e51b815260040161044c906121b4565b60405180910390fd5b61045e81610fe7565b50565b60975460405163237dfb4760e11b81523360048201526001600160a01b03909116906346fbf68e90602401602060405180830381865afa1580156104a9573d6000803e3d6000fd5b505050506040513d601f19601f820116820180604052508101906104cd91906121fe565b6104e95760405162461bcd60e51b815260040161044c90612220565b609854818116146105625760405162461bcd60e51b815260206004820152603860248201527f5061757361626c652e70617573653a20696e76616c696420617474656d70742060448201527f746f20756e70617573652066756e6374696f6e616c6974790000000000000000606482015260840161044c565b609881905560405181815233907fab40a374bc51de372200a8bc981af8c9ecdc08dfdaef0bb6e09f88f3c616ef3d906020015b60405180910390a250565b6105a86110de565b6105b28282611138565b5050565b60606105c1826113b0565b92915050565b60405163ec7fbb3160e01b81523360048201527f00000000000000000000000000000000000000000000000000000000000000006001600160a01b03169063ec7fbb3190602401602060405180830381865afa15801561062b573d6000803e3d6000fd5b505050506040513d601f19601f8201168201806040525081019061064f91906121fe565b15156001146106a05760405162461bcd60e51b815260206004820152601b60248201527f4f70657261746f72206d757374206265207468652063616c6c65720000000000604482015260640161044c565b6106a933610cf0565b6107125760405162461bcd60e51b815260206004820152603460248201527f4f70657261746f7220646f6573206e6f742068617665206d61746368207468656044820152732077656967687420726571756972656d656e747360601b606482015260840161044c565b63ffffffff8316600090815260ca602090815260409182902054915161073a918791016122ee565b60405160208183030381529060405280519060200120146107c35760405162461bcd60e51b815260206004820152603d60248201527f737570706c696564207461736b20646f6573206e6f74206d617463682074686560448201527f206f6e65207265636f7264656420696e2074686520636f6e7472616374000000606482015260840161044c565b33600090815260cb6020908152604080832063ffffffff87168452909152902080546107ee90612301565b1590506108505760405162461bcd60e51b815260206004820152602a60248201527f4f70657261746f722068617320616c726561647920726573706f6e64656420746044820152696f20746865207461736b60b01b606482015260840161044c565b600061085c858061233b565b60405160200161086d929190612381565b60405160208183030381529060405280519060200120905060006108de826040517f19457468657265756d205369676e6564204d6573736167653a0a3332000000006020820152603c8101829052600090605c01604051602081830303815290604052805190602001209050919050565b9050600061092485858080601f01602080910402602001604051908101604052809392919081815260200183838082843760009201919091525086939250506116dc9050565b90506001600160a01b038116331461097e5760405162461bcd60e51b815260206004820152601e60248201527f4d657373616765207369676e6572206973206e6f74206f70657261746f720000604482015260640161044c565b33600090815260cb6020908152604080832063ffffffff8a16845290915290206109a98587836123f1565b508563ffffffff167f8eb2d2fcccf5801e10ff58cd73e8781ba923122963789378771f03c1148b023e88336040516109e29291906124b0565b60405180910390a250505050505050565b60975460405163237dfb4760e11b81523360048201526001600160a01b03909116906346fbf68e90602401602060405180830381865afa158015610a3b573d6000803e3d6000fd5b505050506040513d601f19601f82011682018060405250810190610a5f91906121fe565b610a7b5760405162461bcd60e51b815260040161044c90612220565b600019609881905560405190815233907fab40a374bc51de372200a8bc981af8c9ecdc08dfdaef0bb6e09f88f3c616ef3d9060200160405180910390a2565b610ac26110de565b610acc6000611700565b565b6040805180820182528281524363ffffffff1660208083019190915291519091610afa918391016124da565b60408051601f19818403018152828252805160209182012060c9805463ffffffff908116600090815260ca90945293909220555416907f58180a6a0403a63c2b5ce4b85d129d46a80d37851b2216bd0a98b59e7309b84790610b5d9084906124da565b60405180910390a260c954610b799063ffffffff166001612528565b60c9805463ffffffff191663ffffffff929092169190911790555050565b336001600160a01b037f00000000000000000000000000000000000000000000000000000000000000001614610bdf5760405162461bcd60e51b815260040161044c90612545565b6105b28282611752565b336001600160a01b037f00000000000000000000000000000000000000000000000000000000000000001614610c315760405162461bcd60e51b815260040161044c90612545565b61045e816117a0565b610c426110de565b61045e8161181f565b60cb60209081526000928352604080842090915290825290208054610c6f90612301565b80601f0160208091040260200160405190810160405280929190818152602001828054610c9b90612301565b8015610ce85780601f10610cbd57610100808354040283529160200191610ce8565b820191906000526020600020905b815481529060010190602001808311610ccb57829003601f168201915b505050505081565b60007f00000000000000000000000000000000000000000000000000000000000000006001600160a01b03166340bf2fb76040518163ffffffff1660e01b8152600401602060405180830381865afa158015610d50573d6000803e3d6000fd5b505050506040513d601f19601f82011682018060405250810190610d7491906125b5565b6040516398ec1ac960e01b81526001600160a01b0384811660048301527f000000000000000000000000000000000000000000000000000000000000000016906398ec1ac990602401602060405180830381865afa158015610dda573d6000803e3d6000fd5b505050506040513d601f19601f82011682018060405250810190610dfe91906125b5565b101592915050565b6060610e1061186b565b905090565b610e1d6110de565b6001600160a01b038116610e825760405162461bcd60e51b815260206004820152602660248201527f4f776e61626c653a206e6577206f776e657220697320746865207a65726f206160448201526564647265737360d01b606482015260840161044c565b61045e81611700565b609760009054906101000a90046001600160a01b03166001600160a01b031663eab66d7a6040518163ffffffff1660e01b8152600401602060405180830381865afa158015610ede573d6000803e3d6000fd5b505050506040513d601f19601f82011682018060405250810190610f029190612197565b6001600160a01b0316336001600160a01b031614610f325760405162461bcd60e51b815260040161044c906121b4565b609854198119609854191614610fb05760405162461bcd60e51b815260206004820152603860248201527f5061757361626c652e756e70617573653a20696e76616c696420617474656d7060448201527f7420746f2070617573652066756e6374696f6e616c6974790000000000000000606482015260840161044c565b609881905560405181815233907f3582d1828e26bf56bd801502bc021ac0bc8afb57c826e4986b45593c8fad389c90602001610595565b6001600160a01b0381166110755760405162461bcd60e51b815260206004820152604960248201527f5061757361626c652e5f73657450617573657252656769737472793a206e657760448201527f50617573657252656769737472792063616e6e6f7420626520746865207a65726064820152686f206164647265737360b81b608482015260a40161044c565b609754604080516001600160a01b03928316815291831660208301527f6e9fcd539896fca60e8b0f01dd580233e48a6b0f7df013b89ba7f565869acdb6910160405180910390a1609780546001600160a01b0319166001600160a01b0392909216919091179055565b6033546001600160a01b03163314610acc5760405162461bcd60e51b815260206004820181905260248201527f4f776e61626c653a2063616c6c6572206973206e6f7420746865206f776e6572604482015260640161044c565b60005b8181101561132b57828282818110611155576111556125ce565b905060200281019061116791906125e4565b611178906040810190602001611d07565b6001600160a01b03166323b872dd333086868681811061119a5761119a6125ce565b90506020028101906111ac91906125e4565b604080516001600160e01b031960e087901b1681526001600160a01b039485166004820152939092166024840152013560448201526064016020604051808303816000875af1158015611203573d6000803e3d6000fd5b505050506040513d601f19601f8201168201806040525081019061122791906121fe565b5082828281811061123a5761123a6125ce565b905060200281019061124c91906125e4565b61125d906040810190602001611d07565b6001600160a01b031663095ea7b37f000000000000000000000000000000000000000000000000000000000000000085858581811061129e5761129e6125ce565b90506020028101906112b091906125e4565b604080516001600160e01b031960e086901b1681526001600160a01b039093166004840152013560248201526044016020604051808303816000875af11580156112fe573d6000803e3d6000fd5b505050506040513d601f19601f8201168201806040525081019061132291906121fe565b5060010161113b565b50604051630da22a8b60e11b81526001600160a01b037f00000000000000000000000000000000000000000000000000000000000000001690631b4455169061137a9085908590600401612694565b600060405180830381600087803b15801561139457600080fd5b505af11580156113a8573d6000803e3d6000fd5b505050505050565b606060007f00000000000000000000000000000000000000000000000000000000000000006001600160a01b0316631703a0186040518163ffffffff1660e01b8152600401600060405180830381865afa158015611412573d6000803e3d6000fd5b505050506040513d6000823e601f3d908101601f1916820160405261143a91908101906127c5565b8051519091506000816001600160401b0381111561145a5761145a611f06565b604051908082528060200260200182016040528015611483578160200160208202803683370190505b50905060005b828110156114e35783518051829081106114a5576114a56125ce565b6020026020010151600001518282815181106114c3576114c36125ce565b6001600160a01b0390921660209283029190910190910152600101611489565b50604051639004134760e01b81526000906001600160a01b037f0000000000000000000000000000000000000000000000000000000000000000169063900413479061153590899086906004016128c6565b600060405180830381865afa158015611552573d6000803e3d6000fd5b505050506040513d6000823e601f3d908101601f1916820160405261157a9190810190612914565b90506000836001600160401b0381111561159657611596611f06565b6040519080825280602002602001820160405280156115bf578160200160208202803683370190505b5090506000805b858110156116065760008482815181106115e2576115e26125ce565b602002602001015111156115fe57816115fa816129a4565b9250505b6001016115c6565b506000816001600160401b0381111561162157611621611f06565b60405190808252806020026020018201604052801561164a578160200160208202803683370190505b50905060005b868110156116cf57600085828151811061166c5761166c6125ce565b602002602001015111156116c75783818151811061168c5761168c6125ce565b60200260200101518282815181106116a6576116a66125ce565b60200260200101906001600160a01b031690816001600160a01b0316815250505b600101611650565b5098975050505050505050565b60008060006116eb85856119a8565b915091506116f881611a16565b509392505050565b603380546001600160a01b038381166001600160a01b0319831681179093556040519116919082907f8be0079c531659141344cd1fd0a4f28419497f9722a3daafe3b4186f6b6457e090600090a35050565b604051639926ee7d60e01b81526001600160a01b037f00000000000000000000000000000000000000000000000000000000000000001690639926ee7d9061137a90859085906004016129bd565b6040516351b27a6d60e11b81526001600160a01b0382811660048301527f0000000000000000000000000000000000000000000000000000000000000000169063a364f4da906024015b600060405180830381600087803b15801561180457600080fd5b505af1158015611818573d6000803e3d6000fd5b5050505050565b60405163a98fb35560e01b81526001600160a01b037f0000000000000000000000000000000000000000000000000000000000000000169063a98fb355906117ea908490600401612184565b606060007f00000000000000000000000000000000000000000000000000000000000000006001600160a01b0316631703a0186040518163ffffffff1660e01b8152600401600060405180830381865afa1580156118cd573d6000803e3d6000fd5b505050506040513d6000823e601f3d908101601f191682016040526118f591908101906127c5565b905060008160000151516001600160401b0381111561191657611916611f06565b60405190808252806020026020018201604052801561193f578160200160208202803683370190505b50905060005b8251518110156119a1578251805182908110611963576119636125ce565b602002602001015160000151828281518110611981576119816125ce565b6001600160a01b0390921660209283029190910190910152600101611945565b5092915050565b60008082516041036119de5760208301516040840151606085015160001a6119d287828585611bcc565b94509450505050611a0f565b8251604003611a0757602083015160408401516119fc868383611cb9565b935093505050611a0f565b506000905060025b9250929050565b6000816004811115611a2a57611a2a612a08565b03611a325750565b6001816004811115611a4657611a46612a08565b03611a935760405162461bcd60e51b815260206004820152601860248201527f45434453413a20696e76616c6964207369676e61747572650000000000000000604482015260640161044c565b6002816004811115611aa757611aa7612a08565b03611af45760405162461bcd60e51b815260206004820152601f60248201527f45434453413a20696e76616c6964207369676e6174757265206c656e67746800604482015260640161044c565b6003816004811115611b0857611b08612a08565b03611b605760405162461bcd60e51b815260206004820152602260248201527f45434453413a20696e76616c6964207369676e6174757265202773272076616c604482015261756560f01b606482015260840161044c565b6004816004811115611b7457611b74612a08565b0361045e5760405162461bcd60e51b815260206004820152602260248201527f45434453413a20696e76616c6964207369676e6174757265202776272076616c604482015261756560f01b606482015260840161044c565b6000807f7fffffffffffffffffffffffffffffff5d576e7357a4501ddfe92f46681b20a0831115611c035750600090506003611cb0565b8460ff16601b14158015611c1b57508460ff16601c14155b15611c2c5750600090506004611cb0565b6040805160008082526020820180845289905260ff881692820192909252606081018690526080810185905260019060a0016020604051602081039080840390855afa158015611c80573d6000803e3d6000fd5b5050604051601f1901519150506001600160a01b038116611ca957600060019250925050611cb0565b9150600090505b94509492505050565b6000806001600160ff1b03831681611cd660ff86901c601b612a1e565b9050611ce487828885611bcc565b935093505050935093915050565b6001600160a01b038116811461045e57600080fd5b600060208284031215611d1957600080fd5b8135611d2481611cf2565b9392505050565b600060208284031215611d3d57600080fd5b5035919050565b60008060208385031215611d5757600080fd5b82356001600160401b0380821115611d6e57600080fd5b818501915085601f830112611d8257600080fd5b813581811115611d9157600080fd5b8660208260051b8501011115611da657600080fd5b60209290920196919550909350505050565b803563ffffffff81168114611dcc57600080fd5b919050565b600060208284031215611de357600080fd5b611d2482611db8565b6020808252825182820181905260009190848201906040850190845b81811015611e2d5783516001600160a01b031683529284019291840191600101611e08565b50909695505050505050565b60008060008060608587031215611e4f57600080fd5b84356001600160401b0380821115611e6657600080fd5b9086019060408289031215611e7a57600080fd5b819550611e8960208801611db8565b94506040870135915080821115611e9f57600080fd5b818701915087601f830112611eb357600080fd5b813581811115611ec257600080fd5b886020828501011115611ed457600080fd5b95989497505060200194505050565b600060208284031215611ef557600080fd5b813560ff81168114611d2457600080fd5b634e487b7160e01b600052604160045260246000fd5b604051606081016001600160401b0381118282101715611f3e57611f3e611f06565b60405290565b604051602081016001600160401b0381118282101715611f3e57611f3e611f06565b604080519081016001600160401b0381118282101715611f3e57611f3e611f06565b604051601f8201601f191681016001600160401b0381118282101715611fb057611fb0611f06565b604052919050565b60006001600160401b03831115611fd157611fd1611f06565b611fe4601f8401601f1916602001611f88565b9050828152838383011115611ff857600080fd5b828260208301376000602084830101529392505050565b60006020828403121561202157600080fd5b81356001600160401b0381111561203757600080fd5b8201601f8101841361204857600080fd5b61205784823560208401611fb8565b949350505050565b6000806040838503121561207257600080fd5b823561207d81611cf2565b915060208301356001600160401b038082111561209957600080fd5b90840190606082870312156120ad57600080fd5b6120b5611f1c565b8235828111156120c457600080fd5b83019150601f820187136120d757600080fd5b6120e687833560208501611fb8565b815260208301356020820152604083013560408201528093505050509250929050565b6000806040838503121561211c57600080fd5b823561212781611cf2565b915061213560208401611db8565b90509250929050565b6000815180845260005b8181101561216457602081850181015186830182015201612148565b506000602082860101526020601f19601f83011685010191505092915050565b602081526000611d24602083018461213e565b6000602082840312156121a957600080fd5b8151611d2481611cf2565b6020808252602a908201527f6d73672e73656e646572206973206e6f74207065726d697373696f6e6564206160408201526939903ab73830bab9b2b960b11b606082015260800190565b60006020828403121561221057600080fd5b81518015158114611d2457600080fd5b60208082526028908201527f6d73672e73656e646572206973206e6f74207065726d697373696f6e6564206160408201526739903830bab9b2b960c11b606082015260800190565b60008135601e1983360301811261227e57600080fd5b82016020810190356001600160401b0381111561229a57600080fd5b8036038213156122a957600080fd5b604085528060408601528082606087013760006060828701015263ffffffff6122d460208601611db8565b166020860152601f01601f19169093016060019392505050565b602081526000611d246020830184612268565b600181811c9082168061231557607f821691505b60208210810361233557634e487b7160e01b600052602260045260246000fd5b50919050565b6000808335601e1984360301811261235257600080fd5b8301803591506001600160401b0382111561236c57600080fd5b602001915036819003821315611a0f57600080fd5b6602432b6363796160cd1b81528183600783013760009101600701908152919050565b601f8211156123ec576000816000526020600020601f850160051c810160208610156123cd5750805b601f850160051c820191505b818110156113a8578281556001016123d9565b505050565b6001600160401b0383111561240857612408611f06565b61241c836124168354612301565b836123a4565b6000601f84116001811461245057600085156124385750838201355b600019600387901b1c1916600186901b178355611818565b600083815260209020601f19861690835b828110156124815786850135825560209485019460019092019101612461565b508682101561249e5760001960f88860031b161c19848701351681555b505060018560011b0183555050505050565b6040815260006124c36040830185612268565b905060018060a01b03831660208301529392505050565b6020815260008251604060208401526124f6606084018261213e565b905063ffffffff60208501511660408401528091505092915050565b634e487b7160e01b600052601160045260246000fd5b63ffffffff8181168382160190808211156119a1576119a1612512565b6020808252604a908201527f4543445341536572766963654d616e61676572426173652e6f6e6c795374616b60408201527f6552656769737472793a2063616c6c6572206973206e6f7420746865207374616060820152696b65526567697374727960b01b608082015260a00190565b6000602082840312156125c757600080fd5b5051919050565b634e487b7160e01b600052603260045260246000fd5b60008235609e198336030181126125fa57600080fd5b9190910192915050565b8035611dcc81611cf2565b6bffffffffffffffffffffffff8116811461045e57600080fd5b8183526000602080850194508260005b8581101561268957813561264c81611cf2565b6001600160a01b03168752818301356126648161260f565b6bffffffffffffffffffffffff16878401526040968701969190910190600101612639565b509495945050505050565b60208082528181018390526000906040808401600586901b8501820187855b8881101561279457878303603f190184528135368b9003609e190181126126d957600080fd5b8a0160a0813536839003601e190181126126f257600080fd5b820188810190356001600160401b0381111561270d57600080fd5b8060061b360382131561271f57600080fd5b82875261272f8388018284612629565b9250505061273e888301612604565b6001600160a01b03168886015281870135878601526060612760818401611db8565b63ffffffff16908601526080612777838201611db8565b63ffffffff169501949094525092850192908501906001016126b3565b509098975050505050505050565b60006001600160401b038211156127bb576127bb611f06565b5060051b60200190565b600060208083850312156127d857600080fd5b82516001600160401b03808211156127ef57600080fd5b818501915082828703121561280357600080fd5b61280b611f44565b82518281111561281a57600080fd5b80840193505086601f84011261282f57600080fd5b8251915061284461283f836127a2565b611f88565b82815260069290921b8301840191848101908884111561286357600080fd5b938501935b838510156128b9576040858a0312156128815760008081fd5b612889611f66565b855161289481611cf2565b8152858701516128a38161260f565b8188015282526040949094019390850190612868565b8252509695505050505050565b6001600160a01b038381168252604060208084018290528451918401829052600092858201929091906060860190855b818110156127945785518516835294830194918301916001016128f6565b6000602080838503121561292757600080fd5b82516001600160401b0381111561293d57600080fd5b8301601f8101851361294e57600080fd5b805161295c61283f826127a2565b81815260059190911b8201830190838101908783111561297b57600080fd5b928401925b8284101561299957835182529284019290840190612980565b979650505050505050565b6000600182016129b6576129b6612512565b5060010190565b60018060a01b03831681526040602082015260008251606060408401526129e760a084018261213e565b90506020840151606084015260408401516080840152809150509392505050565b634e487b7160e01b600052602160045260246000fd5b808201808211156105c1576105c161251256fea2646970667358221220741398cccd4612d4af1f50ca424a902b63fa48c817a06786c96599a0810a880364736f6c63430008180033","linkReferences":{}},"methodIdentifiers":{"allTaskHashes(uint32)":"2d89f6fc","allTaskResponses(address,uint32)":"c20bab7f","avsDirectory()":"6b3aa72e","createNewTask(string)":"85edf874","deregisterOperatorFromAVS(address)":"a364f4da","getOperatorRestakedStrategies(address)":"33cfb7b7","getRestakeableStrategies()":"e481af9d","latestTaskNum()":"8b00ce7c","operatorHasMinimumWeight(address)":"d5dba76d","owner()":"8da5cb5b","pause(uint256)":"136439dd","pauseAll()":"595c6a67","paused()":"5c975abb","paused(uint8)":"5ac86ab7","pauserRegistry()":"886f1195","payForRange(((address,uint96)[],address,uint256,uint32,uint32)[])":"1b445516","registerOperatorToAVS(address,(bytes,bytes32,uint256))":"9926ee7d","renounceOwnership()":"715018a6","respondToTask((string,uint32),uint32,bytes)":"3415a49c","setPauserRegistry(address)":"10d67a2f","stakeRegistry()":"68304835","transferOwnership(address)":"f2fde38b","unpause(uint256)":"fabc1cbc","updateAVSMetadataURI(string)":"a98fb355"},"id":51}